{
    "contractName": "VotingContract",
    "abi": [
        {
            "inputs": [],
            "stateMutability": "nonpayable",
            "type": "constructor"
        },
        {
            "inputs": [
                {
                    "internalType": "string",
                    "name": "_candidateName",
                    "type": "string"
                }
            ],
            "name": "getCandidateVotes",
            "outputs": [
                {
                    "internalType": "uint256",
                    "name": "",
                    "type": "uint256"
                }
            ],
            "stateMutability": "view",
            "type": "function"
        },
        {
            "inputs": [],
            "name": "getCandidates",
            "outputs": [
                {
                    "internalType": "string[]",
                    "name": "",
                    "type": "string[]"
                }
            ],
            "stateMutability": "view",
            "type": "function"
        },
        {
            "inputs": [],
            "name": "getVoteResult",
            "outputs": [
                {
                    "internalType": "string",
                    "name": "",
                    "type": "string"
                }
            ],
            "stateMutability": "view",
            "type": "function"
        },
        {
            "inputs": [],
            "name": "owner",
            "outputs": [
                {
                    "internalType": "address",
                    "name": "",
                    "type": "address"
                }
            ],
            "stateMutability": "view",
            "type": "function"
        },
        {
            "inputs": [
                {
                    "internalType": "string",
                    "name": "_candidateName",
                    "type": "string"
                },
                {
                    "internalType": "uint256",
                    "name": "_age",
                    "type": "uint256"
                },
                {
                    "internalType": "string",
                    "name": "_candidateId",
                    "type": "string"
                }
            ],
            "name": "representate",
            "outputs": [],
            "stateMutability": "nonpayable",
            "type": "function"
        },
        {
            "inputs": [
                {
                    "internalType": "string",
                    "name": "_candidateName",
                    "type": "string"
                }
            ],
            "name": "vote",
            "outputs": [],
            "stateMutability": "nonpayable",
            "type": "function"
        },
        {
            "inputs": [],
            "name": "winner",
            "outputs": [
                {
                    "internalType": "string",
                    "name": "",
                    "type": "string"
                }
            ],
            "stateMutability": "view",
            "type": "function"
        }
    ],
    "bytecode": "608060405234801561001057600080fd5b50600080546001600160a01b03191633179055610b9e806100326000396000f3fe608060405234801561001057600080fd5b506004361061007d5760003560e01c8063c9f14e181161005b578063c9f14e18146100e0578063dfbf53ae146100f5578063e962414f146100fc578063fc36e15b1461011d57600080fd5b806306a49fce146100825780638742fc3b146100a05780638da5cb5b146100b5575b600080fd5b61008a610130565b604051610097919061073d565b60405180910390f35b6100a8610209565b604051610097919061079f565b6000546100c8906001600160a01b031681565b6040516001600160a01b039091168152602001610097565b6100f36100ee36600461085c565b610338565b005b60606100a8565b61010f61010a3660046108c9565b6103d6565b604051908152602001610097565b6100f361012b3660046108c9565b6103fe565b60606003805480602002602001604051908101604052809291908181526020016000905b8282101561020057838290600052602060002001805461017390610906565b80601f016020809104026020016040519081016040528092919081815260200182805461019f90610906565b80156101ec5780601f106101c1576101008083540402835291602001916101ec565b820191906000526020600020905b8154815290600101906020018083116101cf57829003601f168201915b505050505081526020019060010190610154565b50505050905090565b60408051602081019091526000808252606091905b60035481101561033257816003828154811061023c5761023c61093b565b906000526020600020016102fc6102f76003858154811061025f5761025f61093b565b90600052602060002001805461027490610906565b80601f01602080910402602001604051908101604052809291908181526020018280546102a090610906565b80156102ed5780601f106102c2576101008083540402835291602001916102ed565b820191906000526020600020905b8154815290600101906020018083116102d057829003601f168201915b50505050506103d6565b610534565b60405160200161030e9392919061096d565b6040516020818303038152906040529150808061032a90610a76565b91505061021e565b50919050565b600083838360405160200161034f93929190610a91565b604051602081830303815290604052805190602001209050806001856040516103789190610ac8565b90815260405160209181900382019020919091556003805460018101825560009190915285516103cf927fc2575a0e9e593c00f959f8c92f12db2869c3395a3b0502d05e2516446f71f85b90920191870190610648565b5050505050565b60006002826040516103e89190610ac8565b9081526020016040518091039020549050919050565b6040516bffffffffffffffffffffffff193360601b16602082015260009060340160405160208183030381529060405280519060200120905060005b6004548110156104c75781600482815481106104585761045861093b565b906000526020600020015414156104b55760405162461bcd60e51b815260206004820152601860248201527f566f7465722068617320616c726561647920766f7465642e0000000000000000604482015260640160405180910390fd5b806104bf81610a76565b91505061043a565b50600480546001810182556000919091527f8a35acfbc15ff81a39ae7d344fd709f28e8600b4aa8c65c6b64bfe7fe36bd19b0181905560405160029061050e908490610ac8565b908152604051908190036020019020805490600061052b83610a76565b91905055505050565b6060816105585750506040805180820190915260018152600360fc1b602082015290565b8160005b8115610582578061056c81610a76565b915061057b9050600a83610afa565b915061055c565b60008167ffffffffffffffff81111561059d5761059d6107b9565b6040519080825280601f01601f1916602001820160405280156105c7576020820181803683370190505b50905060006105d7600184610b0e565b90505b851561063f576105eb600a87610b25565b6105f6906030610b39565b60f81b828261060481610b51565b9350815181106106165761061661093b565b60200101906001600160f81b031916908160001a905350610638600a87610afa565b95506105da565b50949350505050565b82805461065490610906565b90600052602060002090601f01602090048101928261067657600085556106bc565b82601f1061068f57805160ff19168380011785556106bc565b828001600101855582156106bc579182015b828111156106bc5782518255916020019190600101906106a1565b506106c89291506106cc565b5090565b5b808211156106c857600081556001016106cd565b60005b838110156106fc5781810151838201526020016106e4565b8381111561070b576000848401525b50505050565b600081518084526107298160208601602086016106e1565b601f01601f19169290920160200192915050565b6000602080830181845280855180835260408601915060408160051b870101925083870160005b8281101561079257603f19888603018452610780858351610711565b94509285019290850190600101610764565b5092979650505050505050565b6020815260006107b26020830184610711565b9392505050565b634e487b7160e01b600052604160045260246000fd5b600082601f8301126107e057600080fd5b813567ffffffffffffffff808211156107fb576107fb6107b9565b604051601f8301601f19908116603f01168101908282118183101715610823576108236107b9565b8160405283815286602085880101111561083c57600080fd5b836020870160208301376000602085830101528094505050505092915050565b60008060006060848603121561087157600080fd5b833567ffffffffffffffff8082111561088957600080fd5b610895878388016107cf565b94506020860135935060408601359150808211156108b257600080fd5b506108bf868287016107cf565b9150509250925092565b6000602082840312156108db57600080fd5b813567ffffffffffffffff8111156108f257600080fd5b6108fe848285016107cf565b949350505050565b600181811c9082168061091a57607f821691505b6020821081141561033257634e487b7160e01b600052602260045260246000fd5b634e487b7160e01b600052603260045260246000fd5b600081516109638185602086016106e1565b9290920192915050565b6000845160206109808285838a016106e1565b61014160f51b9184019182528554600290600090600181811c90808316806109a957607f831692505b8683108114156109c757634e487b7160e01b85526022600452602485fd5b8080156109db57600181146109f057610a21565b60ff1985168988015283890187019550610a21565b60008d81526020902060005b85811015610a175781548b82018a01529084019089016109fc565b505086848a010195505b5050505050610a53610a44610a3e8361016160f51b815260020190565b89610951565b6201014960ed1b815260030190565b9998505050505050505050565b634e487b7160e01b600052601160045260246000fd5b6000600019821415610a8a57610a8a610a60565b5060010190565b60008451610aa38184602089016106e1565b82018481528351610abb8160208085019088016106e1565b0160200195945050505050565b60008251610ada8184602087016106e1565b9190910192915050565b634e487b7160e01b600052601260045260246000fd5b600082610b0957610b09610ae4565b500490565b600082821015610b2057610b20610a60565b500390565b600082610b3457610b34610ae4565b500690565b60008219821115610b4c57610b4c610a60565b500190565b600081610b6057610b60610a60565b50600019019056fea264697066735822122088b66a586f543ec762afabcae7b5d7033ab6575ec83ba5bbdba49ed87423d7c664736f6c634300080a0033",
    "sourcePath": "c:/Users/manue/OneDrive/Escritorio/Cursos/Blobkchain-Voting-System/voting.sol",
    "compiler": {
        "name": "solc",
        "version": "0.8.10+commit.fc410830"
    },
    "functionHashes": {
        "getCandidateVotes(string)": "e962414f",
        "getCandidates()": "06a49fce",
        "getVoteResult()": "8742fc3b",
        "owner()": "8da5cb5b",
        "representate(string,uint256,string)": "c9f14e18",
        "vote(string)": "fc36e15b",
        "winner()": "dfbf53ae"
    },
    "gasEstimates": {
        "creation": {
            "codeDepositCost": "594800",
            "executionCost": "24860",
            "totalCost": "619660"
        },
        "external": {
            "getCandidateVotes(string)": "infinite",
            "getCandidates()": "infinite",
            "getVoteResult()": "infinite",
            "owner()": "2382",
            "representate(string,uint256,string)": "infinite",
            "vote(string)": "infinite",
            "winner()": "infinite"
        },
        "internal": {
            "uintToString(uint256)": "infinite"
        }
    }
}